{
  "_format": "hh-sol-artifact-1",
  "contractName": "Brand",
  "sourceName": "contracts/Brand.sol",
  "abi": [
    {
      "inputs": [],
      "stateMutability": "nonpayable",
      "type": "constructor"
    },
    {
      "anonymous": false,
      "inputs": [
        {
          "indexed": true,
          "internalType": "address",
          "name": "owner",
          "type": "address"
        },
        {
          "indexed": true,
          "internalType": "address",
          "name": "approved",
          "type": "address"
        },
        {
          "indexed": true,
          "internalType": "uint256",
          "name": "tokenId",
          "type": "uint256"
        }
      ],
      "name": "Approval",
      "type": "event"
    },
    {
      "anonymous": false,
      "inputs": [
        {
          "indexed": true,
          "internalType": "address",
          "name": "owner",
          "type": "address"
        },
        {
          "indexed": true,
          "internalType": "address",
          "name": "operator",
          "type": "address"
        },
        {
          "indexed": false,
          "internalType": "bool",
          "name": "approved",
          "type": "bool"
        }
      ],
      "name": "ApprovalForAll",
      "type": "event"
    },
    {
      "anonymous": false,
      "inputs": [
        {
          "indexed": false,
          "internalType": "address",
          "name": "from",
          "type": "address"
        },
        {
          "indexed": false,
          "internalType": "uint256",
          "name": "tokenID",
          "type": "uint256"
        },
        {
          "indexed": false,
          "internalType": "uint256",
          "name": "timeStamp",
          "type": "uint256"
        }
      ],
      "name": "Minted",
      "type": "event"
    },
    {
      "anonymous": false,
      "inputs": [
        {
          "indexed": true,
          "internalType": "address",
          "name": "previousOwner",
          "type": "address"
        },
        {
          "indexed": true,
          "internalType": "address",
          "name": "newOwner",
          "type": "address"
        }
      ],
      "name": "OwnershipTransferred",
      "type": "event"
    },
    {
      "anonymous": false,
      "inputs": [
        {
          "indexed": false,
          "internalType": "address",
          "name": "account",
          "type": "address"
        }
      ],
      "name": "Paused",
      "type": "event"
    },
    {
      "anonymous": false,
      "inputs": [
        {
          "indexed": true,
          "internalType": "address",
          "name": "from",
          "type": "address"
        },
        {
          "indexed": true,
          "internalType": "address",
          "name": "to",
          "type": "address"
        },
        {
          "indexed": true,
          "internalType": "uint256",
          "name": "tokenId",
          "type": "uint256"
        }
      ],
      "name": "Transfer",
      "type": "event"
    },
    {
      "anonymous": false,
      "inputs": [
        {
          "indexed": false,
          "internalType": "address",
          "name": "account",
          "type": "address"
        }
      ],
      "name": "Unpaused",
      "type": "event"
    },
    {
      "anonymous": false,
      "inputs": [
        {
          "indexed": false,
          "internalType": "address",
          "name": "from",
          "type": "address"
        },
        {
          "indexed": false,
          "internalType": "uint256",
          "name": "value",
          "type": "uint256"
        },
        {
          "indexed": false,
          "internalType": "uint256",
          "name": "timeStamp",
          "type": "uint256"
        }
      ],
      "name": "UserDeposit",
      "type": "event"
    },
    {
      "anonymous": false,
      "inputs": [
        {
          "indexed": false,
          "internalType": "address",
          "name": "from",
          "type": "address"
        },
        {
          "indexed": false,
          "internalType": "uint256",
          "name": "timeStamp",
          "type": "uint256"
        }
      ],
      "name": "Withdraw",
      "type": "event"
    },
    {
      "inputs": [],
      "name": "DEPOSIT_END_TIME",
      "outputs": [
        {
          "internalType": "uint256",
          "name": "",
          "type": "uint256"
        }
      ],
      "stateMutability": "view",
      "type": "function"
    },
    {
      "inputs": [],
      "name": "DEPOSIT_START_TIME",
      "outputs": [
        {
          "internalType": "uint256",
          "name": "",
          "type": "uint256"
        }
      ],
      "stateMutability": "view",
      "type": "function"
    },
    {
      "inputs": [],
      "name": "END_TIME",
      "outputs": [
        {
          "internalType": "uint256",
          "name": "",
          "type": "uint256"
        }
      ],
      "stateMutability": "view",
      "type": "function"
    },
    {
      "inputs": [],
      "name": "FEE_ADDRESS",
      "outputs": [
        {
          "internalType": "address",
          "name": "",
          "type": "address"
        }
      ],
      "stateMutability": "view",
      "type": "function"
    },
    {
      "inputs": [],
      "name": "MAX_MINT_COUNT",
      "outputs": [
        {
          "internalType": "uint256",
          "name": "",
          "type": "uint256"
        }
      ],
      "stateMutability": "view",
      "type": "function"
    },
    {
      "inputs": [],
      "name": "MINTED",
      "outputs": [
        {
          "internalType": "uint256",
          "name": "_value",
          "type": "uint256"
        }
      ],
      "stateMutability": "view",
      "type": "function"
    },
    {
      "inputs": [],
      "name": "STABLE_TOKEN",
      "outputs": [
        {
          "internalType": "contract IERC20",
          "name": "",
          "type": "address"
        }
      ],
      "stateMutability": "view",
      "type": "function"
    },
    {
      "inputs": [],
      "name": "START_TIME",
      "outputs": [
        {
          "internalType": "uint256",
          "name": "",
          "type": "uint256"
        }
      ],
      "stateMutability": "view",
      "type": "function"
    },
    {
      "inputs": [
        {
          "internalType": "uint256",
          "name": "_categoryId",
          "type": "uint256"
        }
      ],
      "name": "_getMintPrice",
      "outputs": [
        {
          "internalType": "uint256",
          "name": "",
          "type": "uint256"
        }
      ],
      "stateMutability": "view",
      "type": "function"
    },
    {
      "inputs": [
        {
          "internalType": "address",
          "name": "to",
          "type": "address"
        },
        {
          "internalType": "uint256",
          "name": "tokenId",
          "type": "uint256"
        }
      ],
      "name": "approve",
      "outputs": [],
      "stateMutability": "nonpayable",
      "type": "function"
    },
    {
      "inputs": [
        {
          "internalType": "address",
          "name": "owner",
          "type": "address"
        }
      ],
      "name": "balanceOf",
      "outputs": [
        {
          "internalType": "uint256",
          "name": "",
          "type": "uint256"
        }
      ],
      "stateMutability": "view",
      "type": "function"
    },
    {
      "inputs": [],
      "name": "baseTokenURI",
      "outputs": [
        {
          "internalType": "string",
          "name": "",
          "type": "string"
        }
      ],
      "stateMutability": "view",
      "type": "function"
    },
    {
      "inputs": [
        {
          "internalType": "uint256",
          "name": "",
          "type": "uint256"
        }
      ],
      "name": "categories",
      "outputs": [
        {
          "internalType": "uint256",
          "name": "categoryId",
          "type": "uint256"
        },
        {
          "internalType": "uint256",
          "name": "categoryPrice",
          "type": "uint256"
        }
      ],
      "stateMutability": "view",
      "type": "function"
    },
    {
      "inputs": [
        {
          "internalType": "uint256",
          "name": "_categoryId",
          "type": "uint256"
        }
      ],
      "name": "deposit",
      "outputs": [],
      "stateMutability": "nonpayable",
      "type": "function"
    },
    {
      "inputs": [
        {
          "internalType": "address",
          "name": "",
          "type": "address"
        }
      ],
      "name": "excludeFromFeeID",
      "outputs": [
        {
          "internalType": "uint256",
          "name": "",
          "type": "uint256"
        }
      ],
      "stateMutability": "view",
      "type": "function"
    },
    {
      "inputs": [
        {
          "internalType": "uint256",
          "name": "tokenId",
          "type": "uint256"
        }
      ],
      "name": "getApproved",
      "outputs": [
        {
          "internalType": "address",
          "name": "",
          "type": "address"
        }
      ],
      "stateMutability": "view",
      "type": "function"
    },
    {
      "inputs": [
        {
          "internalType": "address",
          "name": "_address",
          "type": "address"
        },
        {
          "internalType": "uint256[2]",
          "name": "_data",
          "type": "uint256[2]"
        }
      ],
      "name": "getLeaf",
      "outputs": [
        {
          "internalType": "uint256",
          "name": "",
          "type": "uint256"
        }
      ],
      "stateMutability": "view",
      "type": "function"
    },
    {
      "inputs": [],
      "name": "getMerkleRoot",
      "outputs": [
        {
          "internalType": "uint256",
          "name": "",
          "type": "uint256"
        }
      ],
      "stateMutability": "view",
      "type": "function"
    },
    {
      "inputs": [
        {
          "internalType": "address",
          "name": "_address",
          "type": "address"
        }
      ],
      "name": "getUserData",
      "outputs": [
        {
          "components": [
            {
              "internalType": "bool",
              "name": "isWithdraw",
              "type": "bool"
            },
            {
              "internalType": "uint256",
              "name": "mintCount",
              "type": "uint256"
            },
            {
              "internalType": "uint256",
              "name": "depositCount",
              "type": "uint256"
            },
            {
              "internalType": "uint256",
              "name": "lastProcessTime",
              "type": "uint256"
            },
            {
              "internalType": "uint256",
              "name": "depositedValue",
              "type": "uint256"
            },
            {
              "components": [
                {
                  "internalType": "uint256",
                  "name": "diamondCategoryCount",
                  "type": "uint256"
                },
                {
                  "internalType": "uint256",
                  "name": "pearlCategoryCount",
                  "type": "uint256"
                },
                {
                  "internalType": "uint256",
                  "name": "goldCategoryCount",
                  "type": "uint256"
                },
                {
                  "internalType": "uint256",
                  "name": "silverCategoryCount",
                  "type": "uint256"
                },
                {
                  "internalType": "uint256",
                  "name": "bronzeCategoryCount",
                  "type": "uint256"
                }
              ],
              "internalType": "struct Brand.userNFTCategory",
              "name": "userNFTVesting",
              "type": "tuple"
            }
          ],
          "internalType": "struct Brand.UserData",
          "name": "",
          "type": "tuple"
        }
      ],
      "stateMutability": "view",
      "type": "function"
    },
    {
      "inputs": [
        {
          "internalType": "address",
          "name": "owner",
          "type": "address"
        },
        {
          "internalType": "address",
          "name": "operator",
          "type": "address"
        }
      ],
      "name": "isApprovedForAll",
      "outputs": [
        {
          "internalType": "bool",
          "name": "",
          "type": "bool"
        }
      ],
      "stateMutability": "view",
      "type": "function"
    },
    {
      "inputs": [
        {
          "internalType": "uint256",
          "name": "",
          "type": "uint256"
        }
      ],
      "name": "isTokenSoldByBrand",
      "outputs": [
        {
          "internalType": "bool",
          "name": "",
          "type": "bool"
        }
      ],
      "stateMutability": "view",
      "type": "function"
    },
    {
      "inputs": [
        {
          "internalType": "uint256",
          "name": "_tokenID",
          "type": "uint256"
        },
        {
          "internalType": "uint256[2]",
          "name": "_data",
          "type": "uint256[2]"
        },
        {
          "internalType": "uint256[]",
          "name": "_proof",
          "type": "uint256[]"
        }
      ],
      "name": "mint",
      "outputs": [],
      "stateMutability": "nonpayable",
      "type": "function"
    },
    {
      "inputs": [],
      "name": "name",
      "outputs": [
        {
          "internalType": "string",
          "name": "",
          "type": "string"
        }
      ],
      "stateMutability": "view",
      "type": "function"
    },
    {
      "inputs": [],
      "name": "owner",
      "outputs": [
        {
          "internalType": "address",
          "name": "",
          "type": "address"
        }
      ],
      "stateMutability": "view",
      "type": "function"
    },
    {
      "inputs": [
        {
          "internalType": "uint256",
          "name": "tokenId",
          "type": "uint256"
        }
      ],
      "name": "ownerOf",
      "outputs": [
        {
          "internalType": "address",
          "name": "",
          "type": "address"
        }
      ],
      "stateMutability": "view",
      "type": "function"
    },
    {
      "inputs": [],
      "name": "paused",
      "outputs": [
        {
          "internalType": "bool",
          "name": "",
          "type": "bool"
        }
      ],
      "stateMutability": "view",
      "type": "function"
    },
    {
      "inputs": [],
      "name": "renounceOwnership",
      "outputs": [],
      "stateMutability": "nonpayable",
      "type": "function"
    },
    {
      "inputs": [
        {
          "internalType": "uint256",
          "name": "_categoryId",
          "type": "uint256"
        }
      ],
      "name": "returnCategory",
      "outputs": [
        {
          "components": [
            {
              "internalType": "uint256",
              "name": "categoryId",
              "type": "uint256"
            },
            {
              "internalType": "uint256",
              "name": "categoryPrice",
              "type": "uint256"
            }
          ],
          "internalType": "struct Brand.nftCategory",
          "name": "",
          "type": "tuple"
        }
      ],
      "stateMutability": "view",
      "type": "function"
    },
    {
      "inputs": [
        {
          "internalType": "address",
          "name": "from",
          "type": "address"
        },
        {
          "internalType": "address",
          "name": "to",
          "type": "address"
        },
        {
          "internalType": "uint256",
          "name": "tokenId",
          "type": "uint256"
        }
      ],
      "name": "safeTransferFrom",
      "outputs": [],
      "stateMutability": "nonpayable",
      "type": "function"
    },
    {
      "inputs": [
        {
          "internalType": "address",
          "name": "from",
          "type": "address"
        },
        {
          "internalType": "address",
          "name": "to",
          "type": "address"
        },
        {
          "internalType": "uint256",
          "name": "tokenId",
          "type": "uint256"
        },
        {
          "internalType": "bytes",
          "name": "_data",
          "type": "bytes"
        }
      ],
      "name": "safeTransferFrom",
      "outputs": [],
      "stateMutability": "nonpayable",
      "type": "function"
    },
    {
      "inputs": [
        {
          "internalType": "address",
          "name": "operator",
          "type": "address"
        },
        {
          "internalType": "bool",
          "name": "approved",
          "type": "bool"
        }
      ],
      "name": "setApprovalForAll",
      "outputs": [],
      "stateMutability": "nonpayable",
      "type": "function"
    },
    {
      "inputs": [
        {
          "internalType": "string",
          "name": "baseURI",
          "type": "string"
        }
      ],
      "name": "setBaseURI",
      "outputs": [],
      "stateMutability": "nonpayable",
      "type": "function"
    },
    {
      "inputs": [
        {
          "internalType": "uint256",
          "name": "_categoryId",
          "type": "uint256"
        },
        {
          "internalType": "uint256",
          "name": "_price",
          "type": "uint256"
        }
      ],
      "name": "setCategory",
      "outputs": [],
      "stateMutability": "nonpayable",
      "type": "function"
    },
    {
      "inputs": [
        {
          "internalType": "address",
          "name": "_address",
          "type": "address"
        },
        {
          "internalType": "bool",
          "name": "_isExclude",
          "type": "bool"
        },
        {
          "internalType": "uint256",
          "name": "_excludeFromFeeID",
          "type": "uint256"
        }
      ],
      "name": "setExclude",
      "outputs": [],
      "stateMutability": "nonpayable",
      "type": "function"
    },
    {
      "inputs": [
        {
          "internalType": "uint256",
          "name": "_merkleRoot",
          "type": "uint256"
        }
      ],
      "name": "setMerkleRoot",
      "outputs": [],
      "stateMutability": "nonpayable",
      "type": "function"
    },
    {
      "inputs": [],
      "name": "setPause",
      "outputs": [],
      "stateMutability": "nonpayable",
      "type": "function"
    },
    {
      "inputs": [
        {
          "internalType": "address",
          "name": "_address",
          "type": "address"
        },
        {
          "internalType": "uint256",
          "name": "_maxMint",
          "type": "uint256"
        },
        {
          "internalType": "uint256",
          "name": "_startTime",
          "type": "uint256"
        },
        {
          "internalType": "uint256",
          "name": "_endTime",
          "type": "uint256"
        },
        {
          "internalType": "uint256",
          "name": "_depositStartTime",
          "type": "uint256"
        },
        {
          "internalType": "uint256",
          "name": "_depositEndTime",
          "type": "uint256"
        },
        {
          "internalType": "contract IERC20",
          "name": "_stableToken",
          "type": "address"
        }
      ],
      "name": "setSettings",
      "outputs": [],
      "stateMutability": "nonpayable",
      "type": "function"
    },
    {
      "inputs": [],
      "name": "setUnpause",
      "outputs": [],
      "stateMutability": "nonpayable",
      "type": "function"
    },
    {
      "inputs": [
        {
          "internalType": "bytes4",
          "name": "interfaceId",
          "type": "bytes4"
        }
      ],
      "name": "supportsInterface",
      "outputs": [
        {
          "internalType": "bool",
          "name": "",
          "type": "bool"
        }
      ],
      "stateMutability": "view",
      "type": "function"
    },
    {
      "inputs": [],
      "name": "symbol",
      "outputs": [
        {
          "internalType": "string",
          "name": "",
          "type": "string"
        }
      ],
      "stateMutability": "view",
      "type": "function"
    },
    {
      "inputs": [
        {
          "internalType": "uint256",
          "name": "tokenId",
          "type": "uint256"
        }
      ],
      "name": "tokenURI",
      "outputs": [
        {
          "internalType": "string",
          "name": "",
          "type": "string"
        }
      ],
      "stateMutability": "view",
      "type": "function"
    },
    {
      "inputs": [],
      "name": "totalDepositedValue",
      "outputs": [
        {
          "internalType": "uint256",
          "name": "",
          "type": "uint256"
        }
      ],
      "stateMutability": "view",
      "type": "function"
    },
    {
      "inputs": [
        {
          "internalType": "address",
          "name": "from",
          "type": "address"
        },
        {
          "internalType": "address",
          "name": "to",
          "type": "address"
        },
        {
          "internalType": "uint256",
          "name": "tokenId",
          "type": "uint256"
        }
      ],
      "name": "transferFrom",
      "outputs": [],
      "stateMutability": "nonpayable",
      "type": "function"
    },
    {
      "inputs": [
        {
          "internalType": "address",
          "name": "newOwner",
          "type": "address"
        }
      ],
      "name": "transferOwnership",
      "outputs": [],
      "stateMutability": "nonpayable",
      "type": "function"
    },
    {
      "inputs": [
        {
          "internalType": "uint256",
          "name": "_value",
          "type": "uint256"
        },
        {
          "internalType": "uint256[]",
          "name": "_proof",
          "type": "uint256[]"
        }
      ],
      "name": "verifyMerkle",
      "outputs": [
        {
          "internalType": "bool",
          "name": "",
          "type": "bool"
        }
      ],
      "stateMutability": "view",
      "type": "function"
    },
    {
      "inputs": [],
      "name": "withdraw",
      "outputs": [],
      "stateMutability": "nonpayable",
      "type": "function"
    },
    {
      "inputs": [],
      "name": "withdrawAdmin",
      "outputs": [],
      "stateMutability": "nonpayable",
      "type": "function"
    }
  ],
  "bytecode": "0x60806040523480156200001157600080fd5b50604080518082018252601481527f4272616e64204e465420436f6c6c656374696f6e000000000000000000000000602080830191825283518085019094526003845262424e4360e81b908401528151919291620000729160009162000105565b5080516200008890600190602084019062000105565b50506007805460ff1916905550620000a033620000ab565b6001600855620001f2565b600780546001600160a01b03838116610100818102610100600160a81b031985161790945560405193909204169182907f8be0079c531659141344cd1fd0a4f28419497f9722a3daafe3b4186f6b6457e090600090a35050565b8280546200011390620001ab565b90600052602060002090601f01602090048101928262000137576000855562000182565b82601f106200015257805160ff191683800117855562000182565b8280016001018555821562000182579182015b828111156200018257825182559160200191906001019062000165565b506200019092915062000194565b5090565b5b8082111562000190576000815560010162000195565b600281046001821680620001c057607f821691505b60208210811415620001d657620001d6620001dc565b50919050565b634e487b7160e01b600052602260045260246000fd5b613a0380620002026000396000f3fe608060405234801561001057600080fd5b50600436106102955760003560e01c80637754f88711610167578063cad753b9116100ce578063e985e9c511610087578063e985e9c5146105bc578063eb1edd61146105f8578063ecf2fbb91461060b578063efcd17361461061e578063f2fde38b1461063e578063ffc9896b1461065157600080fd5b8063cad753b914610574578063cdf6530614610587578063d431b1ac14610590578063d547cfb714610598578063d83e8326146105a0578063ddaa26ad146105b357600080fd5b8063b1ad5a5511610120578063b1ad5a551461049a578063b6b55f25146104f3578063b88d4fde14610506578063c6cdbe5e14610519578063c87b56dd1461054e578063c95785bb1461056157600080fd5b80637754f88714610438578063848cb5c61461045857806389524b58146104605780638da5cb5b1461046957806395d89b411461047f578063a22cb4651461048757600080fd5b80633ccfd60b1161020b5780635c710164116101c45780635c710164146103c95780635c975abb146103ec5780635d5e8875146103f75780636352211e1461040a57806370a082311461041d578063715018a61461043057600080fd5b80633ccfd60b146103805780633e9c7f69146103885780634261a8a11461039257806342842e0e1461039b57806349590657146103ae57806355f804b3146103b657600080fd5b80631aad67901161025d5780631aad67901461031557806323b872dd1461032857806331942e6c1461033b57806337ba682d1461034e5780633ab5c87b146103645780633bbe00081461037757600080fd5b806301ffc9a71461029a57806304c76af0146102c357806306fdde03146102cd578063081812fc146102e2578063095ea7b314610302575b600080fd5b6102ad6102a83660046129ce565b610671565b6040516102ba91906134fc565b60405180910390f35b6102cb6106c3565b005b6102d56107d0565b6040516102ba9190613518565b6102f56102f0366004612a3d565b610862565b6040516102ba919061344c565b6102cb6103103660046128e9565b6108a5565b6102cb610323366004612917565b61092b565b6102cb61033636600461279c565b6109c9565b6102cb610349366004612a5a565b6109fa565b610357600d5481565b6040516102ba9190613786565b6102ad610372366004612ab2565b610d6d565b610357600f5481565b6102cb610dcc565b6009546103579081565b61035760125481565b6102cb6103a936600461279c565b610f1c565b601154610357565b6102cb6103c4366004612a08565b610f37565b6102ad6103d7366004612a3d565b60176020526000908152604090205460ff1681565b60075460ff166102ad565b6102cb610405366004612a3d565b610fab565b6102f5610418366004612a3d565b611008565b61035761042b366004612747565b61103d565b6102cb611081565b60105461044b906001600160a01b031681565b6040516102ba919061350a565b6102cb6110bd565b610357600e5481565b60075461010090046001600160a01b03166102f5565b6102d561111d565b6102cb61049536600461288b565b61112c565b6104e66104a8366004612a3d565b604080518082019091526000808252602082015250600090815260156020908152604091829020825180840190935280548352600101549082015290565b6040516102ba9190613778565b6102cb610501366004612a3d565b61113b565b6102cb6105143660046127e7565b611417565b610540610527366004612a3d565b6015602052600090815260409020805460019091015482565b6040516102ba929190613794565b6102d561055c366004612a3d565b61144f565b61035761056f366004612a3d565b61156f565b6102cb610582366004612af7565b61169b565b610357600b5481565b6102cb61170a565b6102d561176a565b6103576105ae36600461285d565b6117f8565b610357600c5481565b6102ad6105ca366004612764565b6001600160a01b03918216600090815260056020908152604080832093909416825291909152205460ff1690565b600a546102f5906001600160a01b031681565b6102cb6106193660046128b9565b61182c565b61035761062c366004612747565b60186020526000908152604090205481565b6102cb61064c366004612747565b6118d3565b61066461065f366004612747565b611935565b6040516102ba9190613769565b60006001600160e01b031982166380ac58cd60e01b14806106a257506001600160e01b03198216635b5e139f60e01b145b806106bd57506301ffc9a760e01b6001600160e01b03198316145b92915050565b6007546001600160a01b036101009091041633146106fc5760405162461bcd60e51b81526004016106f390613699565b60405180910390fd5b6002600854141561071f5760405162461bcd60e51b81526004016106f390613759565b6002600855601054600a5460125460405163a9059cbb60e01b81526001600160a01b039384169363a9059cbb9361075b939116916004016134c6565b602060405180830381600087803b15801561077557600080fd5b505af1158015610789573d6000803e3d6000fd5b505050506040513d601f19601f820116820180604052508101906107ad91906129b1565b6107c95760405162461bcd60e51b81526004016106f390613739565b6001600855565b6060600080546107df9061389f565b80601f016020809104026020016040519081016040528092919081815260200182805461080b9061389f565b80156108585780601f1061082d57610100808354040283529160200191610858565b820191906000526020600020905b81548152906001019060200180831161083b57829003601f168201915b5050505050905090565b600061086d826119e3565b6108895760405162461bcd60e51b81526004016106f390613689565b506000908152600460205260409020546001600160a01b031690565b60006108b082611008565b9050806001600160a01b0316836001600160a01b031614156108e45760405162461bcd60e51b81526004016106f3906136f9565b336001600160a01b0382161480610900575061090081336105ca565b61091c5760405162461bcd60e51b81526004016106f390613619565b6109268383611a00565b505050565b6007546001600160a01b0361010090910416331461095b5760405162461bcd60e51b81526004016106f390613699565b6002600854141561097e5760405162461bcd60e51b81526004016106f390613759565b600a80546001600160a01b039889166001600160a01b031991821617909155600b96909655600c94909455600d92909255600e55600f55601080549190931691161790556001600855565b6109d33382611a6e565b6109ef5760405162461bcd60e51b81526004016106f390613709565b610926838383611b0f565b60026008541415610a1d5760405162461bcd60e51b81526004016106f390613759565b600260085560075460ff1615610a455760405162461bcd60e51b81526004016106f390613609565b600c544211610a665760405162461bcd60e51b81526004016106f390613679565b600d544210610a875760405162461bcd60e51b81526004016106f3906136a9565b600083118015610a9957506103e98311155b610ab55760405162461bcd60e51b81526004016106f3906135e9565b60008381526017602052604090205460ff168015610ae55760405162461bcd60e51b81526004016106f390613539565b33600090815260146020908152604080832060169092528220549091869160ff16610c9b576000610b1583611c31565b9050610b24816000015161156f565b8151909250600090610b3b57506005840154610b8b565b815160011415610b5057506006840154610b8b565b815160021415610b6557506007840154610b8b565b815160031415610b7a57506008840154610b8b565b815160041415610b8b575060098401545b60008111610bab5760405162461bcd60e51b81526004016106f3906135b9565b600b54600186810154610bbd91611f19565b1115610bdb5760405162461bcd60e51b81526004016106f390613589565b845460ff1615610bfd5760405162461bcd60e51b81526004016106f390613549565b6004850154610c0c9084611f2c565b610c285760405162461bcd60e51b81526004016106f3906135a9565b60003389604051602001610c3d929190613416565b6040516020818303038152906040528051906020012060001c9050610c628189610d6d565b610c7e5760405162461bcd60e51b81526004016106f390613749565b6004860154610c8d9085611f2c565b600487015550610ce0915050565b33600090815260186020526040902054600b546001858101549294509091610cc291611f19565b1115610ce05760405162461bcd60e51b81526004016106f390613589565b426003840155600180840154610cf591611f19565b6001840155610d043383611f38565b610d1682610d118461200b565b612125565b610d24600980546001019055565b7f25b428dfde728ccfaddad7e29e4ac23c24ed7fd1a6e3e3f91894a9a073f5dfff338842604051610d57939291906134e1565b60405180910390a1505060016008555050505050565b600082815b8351811015610dc057610dac82858381518110610d9f57634e487b7160e01b600052603260045260246000fd5b6020026020010151612169565b915080610db8816138f9565b915050610d72565b50601154149392505050565b60026008541415610def5760405162461bcd60e51b81526004016106f390613759565b600260085560075460ff1615610e175760405162461bcd60e51b81526004016106f390613609565b600c544211610e385760405162461bcd60e51b81526004016106f390613729565b3360009081526014602052604090206004810154601254610e5891611f2c565b601255805460ff19166001178155600060048083018290556002830182905560105460405163a9059cbb60e01b81526001600160a01b039091169263a9059cbb92610ea692339291016134c6565b602060405180830381600087803b158015610ec057600080fd5b505af1158015610ed4573d6000803e3d6000fd5b505050506040513d601f19601f82011682018060405250810190610ef891906129b1565b610f145760405162461bcd60e51b81526004016106f390613739565b506001600855565b61092683838360405180602001604052806000815250611417565b6007546001600160a01b03610100909104163314610f675760405162461bcd60e51b81526004016106f390613699565b60026008541415610f8a5760405162461bcd60e51b81526004016106f390613759565b60026008558051610fa290601390602084019061250a565b50506001600855565b6007546001600160a01b03610100909104163314610fdb5760405162461bcd60e51b81526004016106f390613699565b60026008541415610ffe5760405162461bcd60e51b81526004016106f390613759565b6011556001600855565b6000818152600260205260408120546001600160a01b0316806106bd5760405162461bcd60e51b81526004016106f390613639565b60006001600160a01b0382166110655760405162461bcd60e51b81526004016106f390613629565b506001600160a01b031660009081526003602052604090205490565b6007546001600160a01b036101009091041633146110b15760405162461bcd60e51b81526004016106f390613699565b6110bb600061217e565b565b6007546001600160a01b036101009091041633146110ed5760405162461bcd60e51b81526004016106f390613699565b600260085414156111105760405162461bcd60e51b81526004016106f390613759565b60026008556107c96121d8565b6060600180546107df9061389f565b61113733838361223e565b5050565b6002600854141561115e5760405162461bcd60e51b81526004016106f390613759565b600260085560075460ff16156111865760405162461bcd60e51b81526004016106f390613609565b600e5442116111a75760405162461bcd60e51b81526004016106f390613719565b6005811080156111b5575060015b6111d15760405162461bcd60e51b81526004016106f3906136e9565b600f5442106111f25760405162461bcd60e51b81526004016106f390613579565b336000908152601460205260409020600b546002820154611214906001611f19565b11156112325760405162461bcd60e51b81526004016106f3906136d9565b600061123d8361156f565b90508061125c5760405162461bcd60e51b81526004016106f3906135e9565b6010546040516323b872dd60e01b81526001600160a01b03909116906323b872dd906112909033903090869060040161345a565b602060405180830381600087803b1580156112aa57600080fd5b505af11580156112be573d6000803e3d6000fd5b505050506040513d601f19601f820116820180604052508101906112e291906129b1565b6112eb57600080fd5b8261130a576005820154611300906001611f19565b6005830155611392565b826001141561132d576006820154611323906001611f19565b6006830155611392565b8260021415611350576007820154611346906001611f19565b6007830155611392565b8260031415611373576008820154611369906001611f19565b6008830155611392565b826004141561139257600982015461138c906001611f19565b60098301555b42600383015560048201546113a79082611f19565b600483015560028201546113bc906001611f19565b60028301556012546113ce9082611f19565b6012556040517f2f1a7fda57b5fd5cb62770aebd7fc9a8a0a834c5ff558eb7562f85f2b28c437590611405903390849042906134e1565b60405180910390a15050600160085550565b6114213383611a6e565b61143d5760405162461bcd60e51b81526004016106f390613709565b611449848484846122e1565b50505050565b606061145a826119e3565b6114765760405162461bcd60e51b81526004016106f390613669565b6000828152600660205260408120805461148f9061389f565b80601f01602080910402602001604051908101604052809291908181526020018280546114bb9061389f565b80156115085780601f106114dd57610100808354040283529160200191611508565b820191906000526020600020905b8154815290600101906020018083116114eb57829003601f168201915b505050505090506000611519612314565b905080516000141561152c575092915050565b81511561155e578082604051602001611546929190613436565b60405160208183030381529060405292505050919050565b61156784612323565b949350505050565b6000816115a65750506000805260156020527fa31547ce6245cdb9ecea19cf8c7eb9f5974025bb4075011409251ae855b30aee5490565b81600114156115e0575050600160005260156020527f27739e4bb5e6f8b5e4b57a047dca8767cc9b982a011081e086cbb0dfa9de818e5490565b816002141561161a575050600260005260156020527f07d4ff730d9753101d832555708a37d38c2c45fce8cacaefc99f06074e93fe0c5490565b8160031415611654575050600360005260156020527fb3a65e8276bd33b3e4f7d6081ebd9899187264822358758dca2e2bc37b2a9c285490565b816004141561168e575050600460005260156020527f8191f4eb6b8bafbfe9a5389c8d07d7f5fd81137a7ee653fc4358269845ee1d2f5490565b506000919050565b919050565b6007546001600160a01b036101009091041633146116cb5760405162461bcd60e51b81526004016106f390613699565b600260085414156116ee5760405162461bcd60e51b81526004016106f390613759565b6000828152601560205260409020918255600191820155600855565b6007546001600160a01b0361010090910416331461173a5760405162461bcd60e51b81526004016106f390613699565b6002600854141561175d5760405162461bcd60e51b81526004016106f390613759565b60026008556107c96123a5565b601380546117779061389f565b80601f01602080910402602001604051908101604052809291908181526020018280546117a39061389f565b80156117f05780601f106117c5576101008083540402835291602001916117f0565b820191906000526020600020905b8154815290600101906020018083116117d357829003601f168201915b505050505081565b6000828260405160200161180d929190613416565b60408051601f1981840301815291905280516020909101209392505050565b6007546001600160a01b0361010090910416331461185c5760405162461bcd60e51b81526004016106f390613699565b6002600854141561187f5760405162461bcd60e51b81526004016106f390613759565b600260089081556001600160a01b039093166000908152601660209081526040808320805495151560ff19968716179055601882528083208490559282526017905220805490911660019081179091559055565b6007546001600160a01b036101009091041633146119035760405162461bcd60e51b81526004016106f390613699565b6001600160a01b0381166119295760405162461bcd60e51b81526004016106f390613569565b6119328161217e565b50565b61193d61258e565b506001600160a01b0316600090815260146020908152604091829020825160c081018452815460ff161515815260018201548184015260028201548185015260038201546060808301919091526004830154608080840191909152855160a0818101885260058601548252600686015496820196909652600785015496810196909652600884015491860191909152600990920154918401919091529081019190915290565b6000908152600260205260409020546001600160a01b0316151590565b600081815260046020526040902080546001600160a01b0319166001600160a01b0384169081179091558190611a3582611008565b6001600160a01b03167f8c5be1e5ebec7d5bd14f71427d1e84f3dd0314c0f7b2291e5b200ac8c7c3b92560405160405180910390a45050565b6000611a79826119e3565b611a955760405162461bcd60e51b81526004016106f3906135f9565b6000611aa083611008565b9050806001600160a01b0316846001600160a01b03161480611adb5750836001600160a01b0316611ad084610862565b6001600160a01b0316145b8061156757506001600160a01b0380821660009081526005602090815260408083209388168352929052205460ff16611567565b826001600160a01b0316611b2282611008565b6001600160a01b031614611b485760405162461bcd60e51b81526004016106f3906136b9565b6001600160a01b038216611b6e5760405162461bcd60e51b81526004016106f3906135c9565b611b79600082611a00565b6001600160a01b0383166000908152600360205260408120805460019290611ba2908490613834565b90915550506001600160a01b0382166000908152600360205260408120805460019290611bd0908490613808565b909155505060008181526002602052604080822080546001600160a01b0319166001600160a01b0386811691821790925591518493918716917fddf252ad1be2c89b69c2b068fc378daa952ba7f163c4a11628f55a4df523b3ef91a4505050565b60408051808201909152600080825260208201528160011415611cb55750506000805260156020908152604080518082019091527fa31547ce6245cdb9ecea19cf8c7eb9f5974025bb4075011409251ae855b30aed5481527fa31547ce6245cdb9ecea19cf8c7eb9f5974025bb4075011409251ae855b30aee549181019190915290565b60028210158015611cc7575060098211155b15611d34575050600160005260156020908152604080518082019091527f27739e4bb5e6f8b5e4b57a047dca8767cc9b982a011081e086cbb0dfa9de818d5481527f27739e4bb5e6f8b5e4b57a047dca8767cc9b982a011081e086cbb0dfa9de818e549181019190915290565b600a8210158015611d46575060278211155b15611db3575050600260005260156020908152604080518082019091527f07d4ff730d9753101d832555708a37d38c2c45fce8cacaefc99f06074e93fe0b5481527f07d4ff730d9753101d832555708a37d38c2c45fce8cacaefc99f06074e93fe0c549181019190915290565b60288210158015611dc55750608b8211155b15611e32575050600360005260156020908152604080518082019091527fb3a65e8276bd33b3e4f7d6081ebd9899187264822358758dca2e2bc37b2a9c275481527fb3a65e8276bd33b3e4f7d6081ebd9899187264822358758dca2e2bc37b2a9c28549181019190915290565b608c8210158015611e4557506103e98211155b15611eb2575050600460005260156020908152604080518082019091527f8191f4eb6b8bafbfe9a5389c8d07d7f5fd81137a7ee653fc4358269845ee1d2e5481527f8191f4eb6b8bafbfe9a5389c8d07d7f5fd81137a7ee653fc4358269845ee1d2f549181019190915290565b50506000805260156020908152604080518082019091527fa31547ce6245cdb9ecea19cf8c7eb9f5974025bb4075011409251ae855b30aed5481527fa31547ce6245cdb9ecea19cf8c7eb9f5974025bb4075011409251ae855b30aee549181019190915290565b6000611f258284613808565b9392505050565b6000611f258284613834565b6001600160a01b038216611f5e5760405162461bcd60e51b81526004016106f390613659565b611f67816119e3565b15611f845760405162461bcd60e51b81526004016106f390613599565b6001600160a01b0382166000908152600360205260408120805460019290611fad908490613808565b909155505060008181526002602052604080822080546001600160a01b0319166001600160a01b03861690811790915590518392907fddf252ad1be2c89b69c2b068fc378daa952ba7f163c4a11628f55a4df523b3ef908290a45050565b60608161202f5750506040805180820190915260018152600360fc1b602082015290565b8160005b81156120595780612043816138f9565b91506120529050600a83613820565b9150612033565b60008167ffffffffffffffff81111561208257634e487b7160e01b600052604160045260246000fd5b6040519080825280601f01601f1916602001820160405280156120ac576020820181803683370190505b5090505b8415611567576120c1600183613834565b91506120ce600a86613926565b6120d9906030613808565b60f81b8183815181106120fc57634e487b7160e01b600052603260045260246000fd5b60200101906001600160f81b031916908160001a90535061211e600a86613820565b94506120b0565b61212e826119e3565b61214a5760405162461bcd60e51b81526004016106f390613649565b600082815260066020908152604090912082516109269284019061250a565b600081831860405160200161180d9190613786565b600780546001600160a01b03838116610100818102610100600160a81b031985161790945560405193909204169182907f8be0079c531659141344cd1fd0a4f28419497f9722a3daafe3b4186f6b6457e090600090a35050565b60075460ff166121fa5760405162461bcd60e51b81526004016106f390613529565b6007805460ff191690557f5db9ee0a495bf2e6ff9c91a7834c1ba4fdd244a5e8aa4e537bd38aeae4b073aa335b604051612234919061344c565b60405180910390a1565b816001600160a01b0316836001600160a01b031614156122705760405162461bcd60e51b81526004016106f3906135d9565b6001600160a01b0383811660008181526005602090815260408083209487168084529490915290819020805460ff1916851515179055517f17307eab39ab6107e8899845ad3d59bd9653f200f220920489ca2b5937696c31906122d49085906134fc565b60405180910390a3505050565b6122ec848484611b0f565b6122f8848484846123fd565b6114495760405162461bcd60e51b81526004016106f390613559565b6060601380546107df9061389f565b606061232e826119e3565b61234a5760405162461bcd60e51b81526004016106f3906136c9565b6000612354612314565b905060008151116123745760405180602001604052806000815250611f25565b8061237e8461200b565b60405160200161238f929190613436565b6040516020818303038152906040529392505050565b60075460ff16156123c85760405162461bcd60e51b81526004016106f390613609565b6007805460ff191660011790557f62e78cea01bee320cd4e420270b5ea74000d11b0c9f74754ebdbfc544b05a2586122273390565b60006001600160a01b0384163b156124ff57604051630a85bd0160e11b81526001600160a01b0385169063150b7a0290612441903390899088908890600401613482565b602060405180830381600087803b15801561245b57600080fd5b505af192505050801561248b575060408051601f3d908101601f19168201909252612488918101906129eb565b60015b6124e5573d8080156124b9576040519150601f19603f3d011682016040523d82523d6000602084013e6124be565b606091505b5080516124dd5760405162461bcd60e51b81526004016106f390613559565b805181602001fd5b6001600160e01b031916630a85bd0160e11b149050611567565b506001949350505050565b8280546125169061389f565b90600052602060002090601f016020900481019282612538576000855561257e565b82601f1061255157805160ff191683800117855561257e565b8280016001018555821561257e579182015b8281111561257e578251825591602001919060010190612563565b5061258a9291506125f5565b5090565b6040518060c00160405280600015158152602001600081526020016000815260200160008152602001600081526020016125f06040518060a0016040528060008152602001600081526020016000815260200160008152602001600081525090565b905290565b5b8082111561258a57600081556001016125f6565b600061261d612618846137b9565b6137a2565b9050808382526020820190508285602086028501111561263c57600080fd5b60005b8581101561266657612651878361273c565b8352602092830192919091019060010161263f565b5050509392505050565b600061267e612618846137dd565b90508281526020810184848401111561269657600080fd5b6126a1848285613867565b509392505050565b80356106bd81613992565b80604081018310156106bd57600080fd5b600082601f8301126126d5578081fd5b813561156784826020860161260a565b80356106bd816139a6565b80516106bd816139a6565b80356106bd816139ae565b80516106bd816139ae565b600082601f830112612721578081fd5b8135611567848260208601612670565b80356106bd816139be565b80356106bd816139c7565b600060208284031215612758578081fd5b611f25838284016126a9565b60008060408385031215612776578081fd5b612782848285016126a9565b91506020612792858286016126a9565b9150509250929050565b6000806000606084860312156127b0578081fd5b6127bc858286016126a9565b925060206127cc868287016126a9565b92505060406127dd8682870161273c565b9150509250925092565b600080600080608085870312156127fc578081fd5b612808868287016126a9565b93506020612818878288016126a9565b93505060406128298782880161273c565b925050606085013567ffffffffffffffff811115612845578182fd5b61285187828801612711565b91505092959194509250565b6000806060838503121561286f578182fd5b61287b848385016126a9565b91506020612792858286016126b4565b6000806040838503121561289d578182fd5b6128a9848385016126a9565b91506020612792858286016126e5565b6000806000606084860312156128cd578283fd5b6128d9858486016126a9565b925060206127cc868287016126e5565b600080604083850312156128fb578182fd5b612907848385016126a9565b915060206127928582860161273c565b600080600080600080600060e0888a031215612931578283fd5b61293d89848a016126a9565b9650602061294d8a828b0161273c565b965050604061295e8a828b0161273c565b955050606061296f8a828b0161273c565b94505060806129808a828b0161273c565b93505060a06129918a828b0161273c565b92505060c06129a28a828b01612731565b91505092959891949750929550565b6000602082840312156129c2578081fd5b611f25838284016126f0565b6000602082840312156129df578081fd5b611f25838284016126fb565b6000602082840312156129fc578081fd5b611f2583828401612706565b600060208284031215612a19578081fd5b8082013567ffffffffffffffff811115612a31578182fd5b61156784828501612711565b600060208284031215612a4e578081fd5b611f258382840161273c565b600080600060808486031215612a6e578081fd5b612a7a8582860161273c565b92506020612a8a868287016126b4565b925050606084013567ffffffffffffffff811115612aa6578182fd5b6127dd868287016126c5565b60008060408385031215612ac4578182fd5b612ad08483850161273c565b9150602083013567ffffffffffffffff811115612aeb578182fd5b612792858286016126c5565b60008060408385031215612b09578182fd5b6129078483850161273c565b612b1e8161384b565b82525050565b612b1e612b308261384b565b613914565b61113760408383613867565b801515612b1e565b6000612b53825190565b808452602084019350612b6a818560208601613873565b601f01601f19169290920192915050565b612b1e8161385c565b6000612b8e825190565b612b9c818560208601613873565b9290920192915050565b60148152602081017314185d5cd8589b194e881b9bdd081c185d5cd95960621b815290505b60200190565b60238152602081017f756e6c75636b7920746f6b656e20616c726561647920736f6c64206279206272815262185b9960ea1b602082015290505b60400190565b6005815260208101646f7070732160d81b81529050612bcb565b60328152602081017f4552433732313a207472616e7366657220746f206e6f6e20455243373231526581527131b2b4bb32b91034b6b83632b6b2b73a32b960711b60208201529050612c0b565b60268152602081017f4f776e61626c653a206e6577206f776e657220697320746865207a65726f206181526564647265737360d01b60208201529050612c0b565b60188152602081017f6465706f73697420706572696f6420697320636c6f736564000000000000000081529050612bcb565b600c8152602081016b1b1a5b5a5d08195e18d9595960a21b81529050612bcb565b601c8152602081017f4552433732313a20746f6b656e20616c7265616479206d696e7465640000000081529050612bcb565b601b8152602081017f696e737566666963656e74206465706f73697465642076616c7565000000000081529050612bcb565b601381526020810172696e737566666963656e742062616c616e636560681b81529050612bcb565b60248152602081017f4552433732313a207472616e7366657220746f20746865207a65726f206164648152637265737360e01b60208201529050612c0b565b60198152602081017f4552433732313a20617070726f766520746f2063616c6c65720000000000000081529050612bcb565b60108152602081016f1a5b9d985b1a59081d1bdad95b881a5960821b81529050612bcb565b602c8152602081017f4552433732313a206f70657261746f7220717565727920666f72206e6f6e657881526b34b9ba32b73a103a37b5b2b760a11b60208201529050612c0b565b60108152602081016f14185d5cd8589b194e881c185d5cd95960821b81529050612bcb565b60388152602081017f4552433732313a20617070726f76652063616c6c6572206973206e6f74206f7781527f6e6572206e6f7220617070726f76656420666f7220616c6c000000000000000060208201529050612c0b565b602a8152602081017f4552433732313a2062616c616e636520717565727920666f7220746865207a65815269726f206164647265737360b01b60208201529050612c0b565b60298152602081017f4552433732313a206f776e657220717565727920666f72206e6f6e657869737481526832b73a103a37b5b2b760b91b60208201529050612c0b565b602e8152602081017f45524337323155524953746f726167653a2055524920736574206f66206e6f6e81526d32bc34b9ba32b73a103a37b5b2b760911b60208201529050612c0b565b60208082527f4552433732313a206d696e7420746f20746865207a65726f20616464726573739101908152612bcb565b60318152602081017f45524337323155524953746f726167653a2055524920717565727920666f72208152703737b732bc34b9ba32b73a103a37b5b2b760791b60208201529050612c0b565b6013815260208101721b5a5b9d081a5cc81b9bdd081cdd185c9d1959606a1b81529050612bcb565b602c8152602081017f4552433732313a20617070726f76656420717565727920666f72206e6f6e657881526b34b9ba32b73a103a37b5b2b760a11b60208201529050612c0b565b60208082527f4f776e61626c653a2063616c6c6572206973206e6f7420746865206f776e65729101908152612bcb565b60108152602081016f1b5a5b9d081a5cc8199a5b9a5cda195960821b81529050612bcb565b60298152602081017f4552433732313a207472616e73666572206f6620746f6b656e2074686174206981526839903737ba1037bbb760b91b60208201529050612c0b565b602f8152602081017f4552433732314d657461646174613a2055524920717565727920666f72206e6f81526e3732bc34b9ba32b73a103a37b5b2b760891b60208201529050612c0b565b600d8152602081016c1d1bdbc81b585b9e481b5a5b9d609a1b81529050612bcb565b6013815260208101721a5b9d985b1a590818d85d1959dbdc9e481a59606a1b81529050612bcb565b60218152602081017f4552433732313a20617070726f76616c20746f2063757272656e74206f776e658152603960f91b60208201529050612c0b565b60318152602081017f4552433732313a207472616e736665722063616c6c6572206973206e6f74206f8152701ddb995c881b9bdc88185c1c1c9bdd9959607a1b60208201529050612c0b565b601f8152602081017f6465706f73697420706572696f64206973206e6f7420617661696c61626c650081529050612bcb565b600981526020810168746f6f206561726c7960b81b81529050612bcb565b600f8152602081016e1d1c985b9cd9995c8819985a5b1959608a1b81529050612bcb565b6013815260208101721b195859881a5cc81b9bdd0818dbdc9c9958dd606a1b81529050612bcb565b601f8152602081017f5265656e7472616e637947756172643a207265656e7472616e742063616c6c0081529050612bcb565b805161333e8382612b41565b5060208101516133516020840182613410565b5060408101516133646040840182613410565b5060608101516133776060840182613410565b50608081015161338a6080840182613410565b5060a081015161092660a08401826133bc565b80516133a98382613410565b5060208101516109266020840182613410565b80516133c88382613410565b5060208101516133db6020840182613410565b5060408101516133ee6040840182613410565b5060608101516134016060840182613410565b50608081015161092660808401825b80612b1e565b6134208184612b24565b60140161342d8183612b35565b60400192915050565b6134408184612b84565b9050611f258183612b84565b602081016106bd8284612b15565b606081016134688286612b15565b6134756020830185612b15565b6115676040830184613410565b608081016134908287612b15565b61349d6020830186612b15565b6134aa6040830185613410565b81810360608301526134bc8184612b49565b9695505050505050565b604081016134d48285612b15565b611f256020830184613410565b606081016134ef8286612b15565b6134756020830185613410565b602081016106bd8284612b41565b602081016106bd8284612b7b565b60208082528101611f258184612b49565b602080825281016106bd81612ba6565b602080825281016106bd81612bd1565b602080825281016106bd81612c11565b602080825281016106bd81612c2b565b602080825281016106bd81612c78565b602080825281016106bd81612cb9565b602080825281016106bd81612ceb565b602080825281016106bd81612d0c565b602080825281016106bd81612d3e565b602080825281016106bd81612d70565b602080825281016106bd81612d98565b602080825281016106bd81612dd7565b602080825281016106bd81612e09565b602080825281016106bd81612e2e565b602080825281016106bd81612e75565b602080825281016106bd81612e9a565b602080825281016106bd81612ef2565b602080825281016106bd81612f37565b602080825281016106bd81612f7b565b602080825281016106bd81612fc4565b602080825281016106bd81612ff4565b602080825281016106bd81613040565b602080825281016106bd81613068565b602080825281016106bd816130af565b602080825281016106bd816130df565b602080825281016106bd81613104565b602080825281016106bd81613148565b602080825281016106bd81613192565b602080825281016106bd816131b4565b602080825281016106bd816131dc565b602080825281016106bd81613218565b602080825281016106bd81613264565b602080825281016106bd81613296565b602080825281016106bd816132b4565b602080825281016106bd816132d8565b602080825281016106bd81613300565b61014081016106bd8284613332565b604081016106bd828461339d565b602081016106bd8284613410565b604081016134d48285613410565b60006137ad60405190565b905061169682826138cc565b600067ffffffffffffffff8211156137d3576137d361397c565b5060209081020190565b600067ffffffffffffffff8211156137f7576137f761397c565b601f19601f83011660200192915050565b6000821982111561381b5761381b61393a565b500190565b60008261382f5761382f613950565b500490565b6000828210156138465761384661393a565b500390565b60006001600160a01b0382166106bd565b60006106bd8261384b565b82818337506000910152565b60005b8381101561388e578181015183820152602001613876565b838111156114495750506000910152565b6002810460018216806138b357607f821691505b602082108114156138c6576138c6613966565b50919050565b601f19601f830116810181811067ffffffffffffffff821117156138f2576138f261397c565b6040525050565b600060001982141561390d5761390d61393a565b5060010190565b60006106bd8260006106bd8260601b90565b60008261393557613935613950565b500690565b634e487b7160e01b600052601160045260246000fd5b634e487b7160e01b600052601260045260246000fd5b634e487b7160e01b600052602260045260246000fd5b634e487b7160e01b600052604160045260246000fd5b61399b8161384b565b811461193257600080fd5b80151561399b565b6001600160e01b0319811661399b565b61399b8161385c565b8061399b56fea2646970667358221220ba0ab117195a8f2f4f28a4062ef074aa941b0245b695776bf36fa2161903066d64736f6c63430008040033",
  "linkReferences": {},
  "deployedLinkReferences": {}
}